:040000006F10D0139A
:10000400000000000000000090000020A402002076
:10001400A9BDF9F55C030020000000000000000009
:100024005C0300209000002000000000000000009D
:10003400900000200000000090000020000000005C
:1000440090000020900000209000002090000020EC
:1000540090000020540B00209000002000000000BD
:1000640090000020900000209000002090000020CC
:10007400C203002090000020900000209000002087
:1000840090000020900000209000002090000020AC
:1000940001A04111B7170040985F3AC6945F3247F8
:1000A400E39CE6FE3245410182800111130780087A
:1000B400F337078093F787083EC201000100B717A2
:1000C4000040930570052380B704130680FA23804B
:1000D400C7040100010083C6B70493F6F60DA38597
:1000E400D704238007049246F3A60680010001008A
:1000F40093760502D5CEF336078093F6860836C488
:10010400010001002380B7042380C704010001001B
:10011400B70614007D89558D88C7010001000100D0
:10012400010023800704A246F3A606800100010013
:1001340073370780137787083AC6010001002380CC
:10014400B7042380C7040100010001000100372720
:10015400004093061005A303D78023800704B24709
:10016400F3A707800100010093078008F3B7078015
:1001740093F787083ECE01000100B717004013072C
:1001840070052380E704130780FA2380E704010045
:10019400010003C7B70413670708A385E704238096
:1001A4000704F247F3A7078001000100056182807C
:1001B40093760504BDC6F336078093F6860836C8E1
:1001C400010001002380B7042380C704010001005B
:1001D400B7061400938606047D89558D88C70100EF
:1001E40001000100010023800704C246F3A6068033
:1001F4000100010073370780137787083ACA0100AA
:1002040001002380B7042380C704010001003727BD
:10021400004093062005A303D78023800704D24718
:1002240081B773370780137787083ACC0100010040
:100234002380B7042380C704010001009847136793
:10024400070C98C723800704E24719BF01118146B0
:1002540001468145114506CE992493078008F3B7DA
:10026400078093F787083EC601000100B7170040D6
:10027400130770052380E704130780FA2380E7043B
:100284000100010003C76704136717002383E70411
:1002940023800704B247F3A7078001000100F2405E
:1002A4000561828041118146014681451145C52A77
:1002B40013078008F337078093F787083EC40100CB
:1002C4000100B7170040130670052380C704930686
:1002D40080FA2380D70401000100FD552396B7025C
:1002E40023800704A245F3A50580010001007337AC
:1002F4000780137787083AC6010001002380C704EA
:100304002380D7040100010003C7670413671700A3
:100314002383E70423800704B247F3A7078001007F
:10032400010001A0BD473305F50201007D1575FDEF
:100334008280411122C426C206C6AA8401446317DE
:100344009400B24022449244410182800504130582
:10035400803E4204C13F4180DDB7000093050002A6
:1003640073A0458082457390153492402242B24274
:100374004243D2436244F244025592552256B25645
:100384004257D2576258F25806499649264AB64A05
:10039400464BD64B664CF64C065D965D265EB65EC5
:1003A400465FD65F0961730020304111B7170040E2
:1003B400985F3AC6945F3247E39CE6FE32454101BA
:1003C4008280B7170040130700032388E70285479C
:1003D40023A8F18273002030411106C6EF00B02B30
:1003E400F5BF2303048015472303E480010023029F
:1003F400A480828083076480E3CE07FE2303048005
:10040400828083076480E3CE07FE034544808280B4
:1004140083076480E3CE07FE2302A4808280411117
:1004240026C44AC24EC006C61377F50BAD47AA8947
:100434002E8995446306F70019456537653F8D4459
:100444004E854537FD59FD1463983401B240A244EA
:100454001249824941018280135509011375F50F30
:10046400453F2209CDB7011126CC06CEB7040800BA
:1004740051371545BD37713769372AC6A53F32450F
:100484009377150089EB136515001375F50FF2408A
:10049400E24405618280FD14E9FC0145CDBF397158
:1004A40026DC4ADA4ED852D656D45AD25ED006DE6C
:1004B40062CE66CCB7E700E07D5783AA070022C668
:1004C40003AA470023A0E71823A2E718B7170040A0
:1004D400130770052380E704130780FA2380E704D9
:1004E40083C74704930B75FFB684E20793FBFB0FA6
:1004F4008546AA892E8B328937240040E18701572B
:1005040063FA76016308D500894613070002631372
:10051400D5000157D98F93F7F70FB71C00402382FA
:10052400FC0411472303E4801305F00F5D3D094CDF
:10053400D135636D7C11B7050700DA95378707005D
:10054400795563F2E504B3879500636EF702370BC0
:100554000800A94733EB65016399F90689E48144EE
:10056400513D26850DA0DA850945553D050903450C
:10057400F9FFFD14050B693D81C49377FB0FFDF76B
:10058400DD3569FD7D55B7170040130770052380DD
:10059400E704130780FA2380E70403C74704418B69
:1005A4002382E704F250B7E700E023A0571123A207
:1005B4004711E25432445259C259325AA25A125B78
:1005C400825B724CE24C21618280A5476395F906F7
:1005D40085691309F00FB3069900B3742B01B6941F
:1005E4001349F9FFB3749900856B33796901416B41
:1005F4009387F9FFB3F7270199E363FC340193D997
:100604004900C147E3E637FF99BF0569C1697D1910
:10061400D9B71305800D638869011305000263844B
:10062400790113051008CA85DD3B353D21DD4E995E
:10063400B3843441D9B7DA852D45D533CA94E30060
:1006440099F205097D3BA30FA9FED5BF9387F9FF56
:1006540093F7F70F6361FC0C83C71C04130730087E
:10066400631FF70437070800636BEB04B3079B00B1
:10067400B706100063F5D704334BEB008947639347
:10068400F9068980D549E38C04ECDA850945413BB8
:1006940011090327C9FF91472320E48003076480DD
:1006A400E34E07FE23033481FD17EDFBFD14110B0C
:1006B40081C49377FB0FE9FF7D3371F5E1B5B7177B
:1006C400004003C75704B70708001377070219E36C
:1006D400B78707007955E378FBEA33079B00E3FF0C
:1006E400E7F855B58547E382F9F2DA852D45053BF0
:1006F4009389F4FFE38504E6293393F7390091EBFA
:10070400832604800327090093074900E39AE6E45B
:100714003E89CE84F1BFB5476396F9001305900B6B
:10072400C93135BDB1471305B00AE38BF9FE9947CA
:100734006391F904B7050800B365BB002D45C531C5
:1007440081448D4BA14975396396740183270480D4
:100754002320F9008504E39834FF832704801317CA
:100764002B01635507002312F900D5BB2322F9009E
:10077400FDB39D476399F90281451305B0044531E2
:10078400BD442320090023220900FD599D3993F714
:100794007400CA9703C70700FD14398D2380A7008E
:1007A400E39634FF6DBBA1476392F9046D3981442C
:1007B400630D0B008D479304C0036308FB0093048F
:1007C400000563048B01930440041375C507E30813
:1007D40095D81945393139390545213126850D39E1
:1007E40009453D314931E31C05D669BB91476399FD
:1007F400F90013056006F536F53E130590090DB7AB
:10080400E38F09D4F154A9BBBD6601471736000034
:1008140013060603938606A685458347060093F7C9
:10082400F70F91C382800507E3F9E6FE97370000CE
:100834002388B700DDB77D166206618693178601AB
:10084400E18763D4070001458280931726003307AC
:10085400F500AE9718439C4363E7E7007D16E37FFA
:10086400F7FC7D55828005458280FD15E205E18512
:1008740013978501618793F7F50F63480700FD150A
:10088400139725002A97584365D7138517006205E7
:10089400618582803308B5021C4283A80600B33503
:1008A400B502C29733B50701AE984695854863678C
:1008B400B5006394A50063E3070181480C43C69522
:1008C4000CC388C21CC28280814713978701618749
:1008D4006343B7008280139727002A9723200700D9
:1008E4008507E5B78147014793968701E18663C58C
:1008F400B60013351700828093962700AA96944277
:100904008507558FD5B793D755408A07AA979C4337
:1009140005453315B5007D8D8280171300E0E7028D
:1009240003102A84993705C5931725003E9403279D
:10093400C4FF814711EB7D1516053E95420541859F
:10094400171300E06700E30F05838507E5B701454A
:10095400C5BF81471397870161876343C7008280BE
:1009640013972700B386E50094422A97850714C39A
:10097400D5B77D1662066186014793178601E18724
:1009840063D5070013351700828093172600B3063A
:10099400F500AE9794429C437D16B58F5D8FF1BFF1
:1009A4008A05AA9501476363B500828083A6C5FFC3
:1009B400F11593D71600D98F9CC11397F601E5B7AB
:1009C4002A830148014701456343D7008280B387E6
:1009D400050183A80700B30706019C43C697AA979D
:1009E4006384F80033B517010507B30803016207F0
:1009F40023A0F80061871108C1BF2A8301478147FA
:100A0400014563C3D70082803388E500832808004A
:100A1400330EE600032E0E003388A8403308C84185
:100A24006384080133B508018507B308E300E207CE
:100A340023A00801E1871107E9B7171300E0E702D3
:100A440003FE0111B286B2842E86AA850A85753703
:100A54002A84A6850A857935333480000604133543
:100A64001500018D0561171300E0670083FD17135E
:100A740000E0E70243F84111AA89AE8A328BB684BA
:100A840002C202C402C60144131C8401135C8C41DB
:100A940063499C02939B1400FD1B0549138CF4FFCE
:100AA400F15C3304890162046184634D74059247E7
:100AB4008E04CE9423AEF4FE4101171300E06700C8
:100AC40003F713192400B30B2B01014A93172A00CF
:100AD400D69783A50B0088437800340050005D3B13
:100AE400050A93178A01E187F11BE351FCFE924743
:100AF4004E9905042320F900A2473EC2B24702C61C
:100B04003EC459B7131A8901135A8A41131D24008C
:100B140093178A01E18763CF970092470A044E94A2
:100B24001CC0A24705091379F90F3EC2B24702C699
:100B34003EC485BFB3079A0313152A00569508418E
:100B4400780034005000050AEA97DA978C43993309
:100B5400C1B70000197106C212C416C61AC81ECA4B
:100B640022CC26CE2AD02ED232D436D63AD83EDA69
:100B740042DC46DECAC0CEC2D2C4D6C6DAC8DECA99
:100B8400E2CCE6CEEAD0EED2F2D4F6D6FAD8FEDA49
:100B9400938581828841E700050092402242B24257
:100BA4004243D2436244F244025592552256B2560D
:100BB4004257D2576258F25806499649264AB64ACD
:100BC400464BD64B664CF64C065D965D265EB65E8D
:100BD400465FD65F096173002030B7E700E09843B1
:100BE400B706200023A0D718758F0F10000001C589
:100BF40099C1814711E6B7E700E023A0E71082809E
:100C0400B386F50003C80600B306F5008507238004
:100C14000601E317F6FEC5B737E700E01C43B70645
:100C240020002320D718F58F0F10000001C53307CB
:100C3400C50011E637E700E02320F71082800505A0
:100C4400A30FB5FEE31DE5FEF5B737E700E01C434F
:100C5400B70620002320D718F58F0F10000001C518
:100C640099C1014711EA37E700E02320F710054551
:100C740082800507E309E6FE3308E500B386E50054
:100C84000348080083C60600E305D8FE37E700E002
:100C94002320F7100145828037E700E01C43B706A4
:100CA40020002320D718F58F0F1000001307F6FF3C
:100CB400BA952A966317C50037E700E02320F7109A
:100CC4008280FD1503C715000505A30FE5FEDDB7FA
:100CD40037E700E01C43B70620002320D718F58F20
:100CE4000F10000001C53307C50019E637E700E01F
:100CF4002320F7100145828005058346F5FFE3971D
:100D0400B6FEE31BE5FE37E700E02320F7100545B8
:100D140082807971973700009387070422D4804337
:100D240006D626D24AD04ECE52CC56CA5AC85EC631
:100D340079C0B7C4C901014B9739000093894901AF
:100D44009384F437173A0000130A4A01973A0000D3
:100D5400938A4AFB173900001309090583572400B5
:100D640095E35C44631D0B00173700002326F7FE50
:100D7400832BC4002285EF00902B5E84B9A8232620
:100D8400FB00FDB783A7090082971C443307F54095
:100D94006376F500032749001D8F2A9763E2E40870
:100DA4009737000023A807F6835524000345040061
:100DB400975001E0E780201E5C405844A1CB0C44CE
:100DC40003264900AE97BE8663E4B70063E4C70018
:100DD400B386C74014C4228B3A8449F09737000085
:100DE400938747F29C4B09476372F706F917173745
:100DF40000002321F7F2B250225492540259F249CE
:100E0400624AD24A424BB24B4561828063170B005F
:100E14009737000023A2E7F4A1BF2326EB0089BF84
:100E240003274A0209CF63EFA7003385A74083A7AE
:100E34000A016376F5009737000023ADA7EC228BF7
:100E4400404461BF03274900BA97C5B797370000EC
:100E540023A207EC4DB797370000938767F49C43B0
:100E640085C3411106C682979737000083C727EED2
:100E740089E79737000023A507F2B2404101828039
:100E84009737000083C7A7EC91E79737000023A9A1
:100E940007F082808280411122C4173400001304B9
:100EA40024E91C4006C626C24AC091C782979737D8
:100EB400000023AF07E69737000083C7B703858B8D
:100EC400173900001309C90289CF834779001947EC
:100ED4006312F71097370000A38E0700C1215C440A
:100EE40082971C4491C3829797340000938484E6CC
:100EF4009840173600000346F6E09737000083C792
:100F040067E093961700BA9683D60600E5C2973732
:100F1400000083C727DF63E5C70E973700002383EC
:100F240007DE1C40639E071497370000938747E24F
:100F34009C4363870714973700009387E7E6DC43F5
:100F4400173700002328F7DCE9339737000083C7FD
:100F5400D7FA639707129737000083C7F7F991CF41
:100F64008347790093F7F70F89EB97370000A38540
:100F740007F8977001E0E78000B497370000938783
:100F8400E7DDDC53638E070E97370000938787D71E
:100F94009C4BFDC78347790015476363F70E97376A
:100FA400000083C767FA918BE1EF9737000083C78E
:100FB40007DAF9E790409736000083C6B6D463C7D2
:100FC400D70C2244B240924402494101175301E034
:100FD4006700032C834779001D47E314F7F0973724
:100FE4000000A38907F05D2E1C48DDBD850793F73B
:100FF400F70F973600002387F6D0E3E0C7F001BF70
:1010040086073E9783550700231007009737000093
:10101400239E07D297370000938747D19C43173507
:101024000000034525CE13172500BA979C438297E9
:101034009737000083D787D117370000034787CC41
:1010440093C7F7FF7D8D9317170098403E978357FA
:1010540007005D8D2310A7009737000083C787CA58
:1010640091C7850717370000230EF7C8173700000C
:10107400034747C99737000083C7D7C8E37FF7E81A
:10108400B2402244924402494101828013971700DE
:101094003297035707006DF7850715B737C7004028
:1010A4008326C720B707FCFFFD17F58F2326F720FB
:1010B40001000100973700009387C7C4C84F8327F6
:1010C40087262326D7206A0593C7F7FF99835D8D6A
:1010D40082800000EFF03FD87300000000000000A1
:1010E400973200009382A2C6038302002380020089
:1010F400630F0300F32510342EC097050000938579
:10110400A5FD73901534EF00204C7300203086DC6D
:10111400EF00804BE6508280000017370000130771
:10112400E7DC1443411122C49C5E4AC006C699837D
:1011340026C2858B3A84173900001309E9DAD1CB2A
:10114400930700069CDE173700000347C7DA9307AE
:101154000008973400009384A4D9631BF700832705
:1011640009009C4393F70704173700002305F7D8B9
:1011740083C7040093F707049DC397370000938740
:1011840027BD9C4382979737000023A1A7D883C724
:10119400040093F7F70B17370000230BF7D483C72A
:1011A400440093F7070495E7854717370000A30326
:1011B400F7D497370000938727D69C43370702005C
:1011C40098C7130700FC973600002385E6D2984899
:1011D400F8D318401C5F9183858B8DC31C5F93E704
:1011E40007011CDF97370000938707D39C4323A292
:1011F4000706854717370000230EF7CE832709001B
:10120400D8430583058B19C7D843759BD8C3D843E6
:10121400799BD8C3B240224492440249410182805E
:10122400ED3D730020309317D50063D30702973741
:101234000000938767CE9C437D57B8D7973700004B
:10124400938747ACDC4F850717370000232AF7AC98
:10125400937785008DC39737000083C787C993E7C9
:101264001700173700002306F7C8930700F817374D
:1012740000002301F7C89377150099CB9737000036
:1012840083C717C793E7170017370000A302F7C6F1
:101294009377650095CF17370000A30D07C4137724
:1012A4004500973700009387A7C44DCB83C7070039
:1012B40093E7170017370000230CF7C29737000095
:1012C4009387C7C298435C57F19B93E717005CD799
:1012D4009317F50063D4070217370000034787D834
:1012E400418B97370000938767D051C383C7870723
:1012F40093E70702173700002306F7D69317E50094
:1013040063D707029737000083C7C7BEE207E187A8
:1013140063D70700854717370000230DF7BC9737BD
:101324000000938767BF9C433707020098C7931751
:10133400C50063D40702173700000347B7D2058BF3
:1013440097370000938787CA29C383C7970793E712
:10135400270017370000A307F7D0828083C7370020
:1013640093E7170017370000A305F7B881BF03C739
:10137400870789463D8B6308D70083C787070D47D6
:10138400BD8BE39DE7F69147B5B703C79707118B6C
:1013940069D783C7970793E7870065BF973700002E
:1013A400938787B7944397370000938767B403C73D
:1013B4000700058B11CB97370000238D07B29737B1
:1013C4000000A38907B2828003C71700058B65F765
:1013D400F85271FF83C75700DDB7173700001307B2
:1013E400E7B003280700832788039583858BADEF37
:1013F40011C683270803BD832300F6009DC61C4342
:10140400985B4607935767016356070093E707C045
:10141400C207C18303970600C207C18709C7BA97E9
:101424000947B3C7E7022390F6008DCD8345150025
:1014340095C99737000083C707AC93F70704138750
:101444009500894585C33A95834705000547994525
:1014540093F6F7066398E600E207E187814563D3D4
:101464000700B9452E8582808545EDBF411126C20E
:1014740006C622C497340000938404AA3DED944028
:10148400AE87F8527DFF37F400E03E8597370000C1
:10149400238107A6832704D1B285ED9B2328F4D0AA
:1014A400832704D193E787022328F4D073005010D4
:1014B400976001E0E780E04C97370000938707A32B
:1014C4009C43B70680009843558F98C3D857719BA7
:1014D400D8D797370000A38F07A097370000A389B8
:1014E40007A09C40094798C3832704D193E787004A
:1014F4002328F4D0730050100DA08D476315F50414
:10150400973700009387879E9C43B70680009843D3
:10151400558F98C3D857719BD8D79440173700007C
:101524001307079D83472700858B89EB8347370083
:10153400858BC1CB97370000238E079AB240224493
:101544009244410182808547E319F5FCB7F700E036
:1015540003A707D16D9B23A8E7D003A707D113677F
:10156400870223A8E7D07300501098408177FD17B5
:101574005447F58F5CC70F1000009840B70702006E
:101584001CC7930700F8173600002305F696973713
:1015940000009387A7959C439C439D83858B639F01
:1015A400A700930760197CD354C737F700E083275B
:1015B40007D193E787002328F7D02DBF9307E01BBB
:1015C400DDB7FC52A5F39DBF973700009387C794FE
:1015D4009C438847D847798D09C988C79387418830
:1015E40003A307006303030002838280173700000C
:1015F4001307C7928346B7019737000083C7D79470
:101604004C4BB697FD8B33D7F50097360000A38774
:10161400F69097360000A389F692058B15EF1737DD
:1016240000000347B792B3F7E70281460147130569
:10163400000233D6E500058A1378F70F19CA6397B9
:10164400D70097370000A38B078D8280850693F619
:10165400F60F0507E31FA7FC8280972700009387F6
:10166400276F9C43011122CC4AC806CE26CA4EC617
:101674008297973700009387678C804701496301FD
:10168400A406BE8463668506018D135455009737FE
:10169400000083C7478A1379F5016360F40497292E
:1016A400000093896970993703A884009736000075
:1016B40083C66688139756004297158C3A8683A58D
:1016C4004900636407016364B7003306B740973782
:1016D400000023A9C786E378D4FC160433692401E7
:1016E400F24062444A85D2444249B249056182804B
:1016F400972700009387476BDC4333848740229508
:1017040069B7973700009387278198438967938740
:1017140007F47CD397370000938747859C4383A6BF
:101724000709139656006358060083A60709139603
:101734006600634406007453FDF282804111B7E7EA
:1017440000E022C480433707200006C6798C23A01A
:10175400E7180F10000011C199E5B7E700E023A0D6
:10176400871001457DA893073500C207C183F19B0B
:10177400C207C183130740036369F70217370000E8
:101784001307878608431737000013076785144338
:101794006392A602172700001307475C185B55DF06
:1017A400C207DD8D054502974DBF173700001307AB
:1017B4006783C9BF035765002DEB03574500636674
:1017C400F706B306F7402146637CD60203280500DA
:1017D400938687001D8FAA9661171726000003566B
:1017E400C6522392E60023A006012393060014C1E7
:1017F4002312F500130786FF972600002397E6506F
:101804002313B5009725000083D52550B387F540F1
:1018140017270000231BF74EB7E700E023A087102B
:101824002105B240224441018280084195B7B7E7BF
:1018340000E08C433707200023A0E718F98D0F1030
:10184400000001E523A0B71082809727000093874A
:10185400A77903A30700972700009387677883A8D5
:10186400070081469A8763F2170D03A80700636196
:10187400F50C636FA80A138787006368E50A03D62B
:101884006700216705076317E60003C7F1870507AB
:10189400A38FE186172500001305C54603D647002C
:1018A4000357650023930700329742074183172E9D
:1018B4000000231CEE44638C67021723000013030B
:1018C4006372032303006304F30203D3660063100B
:1018D400030283D7460023A0060121073E96210672
:1018E4002392C600972700002391E742B6879843C6
:1018F400630D1703972600009386C66E9442630611
:10190400D7028356670095E283D647000356470003
:101914001843A106B2962392D70098C38357650053
:10192400A107172700002312F73EB7E700E019BF0D
:08193400BE86C2870DBF000052
:10193C00971100209381C1BA175100201301C1EBFC
:10194C001305400097E5FF1F9385056B17060020D4
:10195C00130606FE63FAC5008322050023A055007A
:10196C0011059105E3EAC5FE17C50100130545E510
:10197C00970500209385C5FB1386018263FAC50089
:10198C008322050023A0550011059105E3EAC5FE4D
:10199C001385018297250020938585776377B500A1
:1019AC00232005001105E36DB5FEFD42739002BCCA
:1019BC008D4273904280930280087390023097E2BC
:1019CC00FF1F9382626393E232007390523097222E
:1019DC000000938222CC7390123473002030397142
:1019EC0001436EC619A0397141536AC866CA62CCEC
:1019FC005ECE19A0397101535AD056D252D44ED65C
:101A0C004AD826DA22DC06DE33016140828241119B
:101A1C004AC026C222C406C68282B24D4101024D82
:101A2C00924C224CB24B4101024B924A224AB2498F
:101A3C004101024992442244B240410182803D431B
:101A4C002A876373C3029377F700BDEFADE59376F6
:101A5C0006FF3D8ABA960CC34CC30CC74CC7410752
:101A6C00E36BD7FE11E28280B306C3408A0697026D
:101A7C00000096966780A6002307B700A306B70060
:101A8C002306B700A305B7002305B700A304B700CE
:101A9C002304B700A303B7002303B700A302B700C6
:101AAC002302B700A301B7002301B700A300B700BE
:101ABC002300B700828093F5F50F93968500D58DA2
:101ACC0093960501D58D61B7939627009702000078
:101ADC0096968682E78086FA9680C1171D8F3E9671
:101AEC00E374C3F8A5B73367B500FD530D8B79E7E5
:101AFC00B7877F7F9387F7F710419441B372F60055
:101B0C003363F600BE92B3E262006397720C631803
:101B1C00D6065041D441B372F6003363F600BE9240
:101B2C00B3E262006398720A631BD60410459445B5
:101B3C00B372F6003363F600BE92B3E262006391B7
:101B4C00720A631ED6025045D445B372F600336355
:101B5C00F600BE92B3E26200639A72086311D60279
:101B6C0010499449B372F6003363F600BE92B3E2A7
:101B7C006200639372085105D105E30FD6F6131773
:101B8C00060193970601631CF7001357060193D7C0
:101B9C0006013305F7409375F50F91E98280418377
:101BAC00C1833305F7409375F50F91E1828013776C
:101BBC00F70F93F7F70F3305F740828003460500C4
:101BCC0083C60500050585056313D60065FA330544
:101BDC00D640828011059105E312D6FE0145828024
:101BEC002105A105E31CD6FC014582803105B10518
:101BFC00E316D6FC014582804105C105E310D6FCF5
:101C0C0001458280B717004003C777051377E70FAC
:101C1C00A38BE704130700F8A38DE7043D47238C3F
:101C2C00E70413075003A38CE70403C7A705137736
:101C3C00D70F238DE7048280B717004003C7E70254
:101C4C000D8941111377C70F498F93068008F3B69E
:101C5C00068093F6860836C60100010093067005CF
:101C6C002380D704930680FA2380D7040100010057
:101C7C002387E70223800704B247F3A707800100FC
:101C8C0001004101828041112A83014E930E407E56
:101C9C00130F0019930F400663E56E129308001999
:101CAC0013034006B3781503854E0D4FA14F3373C4
:101CBC0065020D891335150063EFBE121308F6FF8C
:101CCC00794672984208135808013307C70213D695
:101CDC001700BE0732976146B3F6C6021306807032
:101CEC00B386C6023697A166F58F42075D8FB7168D
:101CFC00004083C7F60293F70708A303F1000346DD
:101D0C00710083C7F60293F70708E394C7FE834775
:101D1C007100B716004093F7F70F6388071293070B
:101D2C008008F3B7078093F787083EC401000100D1
:101D3C00B7170040930670052380D704930680FAEA
:101D4C002380D7040100010023AA070383C61703CD
:101D5C0093E60608A388D70223800704A247F3A7BB
:101D6C000780010001001166B71700407D16D45B97
:101D7C00C85F93854703A98EF18EF5FA9306800808
:101D8C00F3B6068093F6860836C60100010093066A
:101D9C0070052380D704930680FA2380D7040100B2
:101DAC00010098C103C7170313670704A388E70250
:101DBC0023800704B247F3A707800100010041010B
:101DCC0082807D133368E3039308E016630E0800EA
:101DDC003368F3039308D016630808009378330034
:101DEC0093B818009388D81633081E01131E0801E7
:101DFC00135E0E0155B56393E50305486386080031
:101E0C000148630303002A8871087298FD15131E9C
:101E1C000801C205135E0E01C18179BD13F81500CE
:101E2C0063F4BF007908D5B713381800E5BF83C732
:101E3C00F60293F70708A303F1000346710083C76A
:101E4C00F60293F70708E394C7FE8347710093F7F4
:101E5C00F70FF1DFE9B531714AD966CB06DF22DD28
:101E6C0026DB4ED752D556D35AD15ECF62CD6AC936
:101E7C006EC7AA8C02D8EF00901C2A8993078008A1
:101E8C00F3B7078093F787083EDA01000100B71714
:101E9C000040130770052380E704130780FA2380A2
:101EAC00E7040100010003C7F7021377770FA3873C
:101EBC00E70203C7F70213678700A387E7022380B3
:101ECC000704D257F3A70780010001000545AD3385
:101EDC00130780C13347E902116A93070AE8930696
:101EEC005002BD69930BA004814A014B1304800876
:101EFC00930470057D1AB347F9023307D7023EC02D
:101F0C00FD873ECC938709A69309803E3347F702A1
:101F1C003AC27D873AC4334739038549B39999014D
:101F2C0093D93940B306D702B30B7703B3C6F60285
:101F3C00B3CBFB0236C6FD8636C893D6FB4136CEF4
:101F4C00B7460F00938606243349D90285669386DB
:101F5C0006FAB3969601B389E90213076055330963
:101F6C00D90293060010B389E9023349D902B3C9E7
:101F7C00F9029316390036CA37190040FD8636D05F
:101F8C00930D090493D7F9413ED2F336048093F6AE
:101F9C00860836DC01000100930770052380FD00E4
:101FAC00930680FA2380DD00010001008346390589
:101FBC0093F6860FA309D9048346390593E61600D8
:101FCC00A309D90423800D00E256F3A60680010074
:101FDC000100130C80FA116DF336048093F6860819
:101FEC0036DE01000100930770052380FD0023807D
:101FFC008D010100010083463905216693E6060236
:10200C00A309D90483560905B3E6A6012318D904FC
:10201C0083560905D18E2318D90423800D00F2565E
:10202C00F3A60680010001008346390593F60602EB
:10203C00638A061803463905218A6DDE0818EF00FD
:10204C0010047336048013768608B2C201000100B6
:10205C0023809D0023808D0101000100B7170040F3
:10206C0003C637051376F60DA389C70403C63705D7
:10207C0013660602A389C704835609052166B3E6D5
:10208C00A6012318D90483560905D18E2318D90427
:10209C0023800D009646F3A60680010001008346BE
:1020AC00390593F606026386061483463905A18A20
:1020BC00EDFE97E0FF1FE78040FDAA8636D497E03F
:1020CC00FF1FE78080FCA256E30AD5FE8356090564
:1020DC004255B3E6A6012318D904C1278346390516
:1020EC00A18AEDDE0356090583462905824733761E
:1020FC00CA00B306DA0293D5F641B296B388F6401D
:10210C00E24733B8C6002E983308F840A247B3B65E
:10211C0016013308D84063C70701631DF8009247C6
:10212C0063FA1701C247634DF80E63950701B24776
:10213C0063E8F80E894663E7660FF24693151800BC
:10214C0013D3F8015E8613951800B365B30042D61D
:10215C0046D4EF80F1163258050B137BFB0F634707
:10216C00000163120838A258638F08361308150053
:10217C00B336A800B69513D6F5013298B336C8001D
:10218C00AE9613581800FE06B3E6060173360480AB
:10219C0013768608B2C60100010023809D002380BF
:1021AC008D01010001000356C902B296C206C1821C
:1021BC002316D90223800D00B646F3A60680010033
:1021CC00010019BDF336048093F68608B6C00100F1
:1021DC00010023809D0023808D01010001008346B6
:1021EC00390593E60602A309D90423800D0086461F
:1021FC0005BDF336048093F68608B6C401000100D1
:10220C0023809D0023808D01010001008346390548
:10221C0093E60602A309D90423800D00A646A5BDAA
:10222C00E30D0BF0F336048093F68608B6C8010074
:10223C000100930680FA23809D002380DD000100BD
:10224C0001008346390593F5FC0F93F6860FA3091D
:10225C00D90483463905CD8EA309D90423800D00FA
:10226C00C646F3A6068001000100130580FA03465A
:10227C003905930639051D8A631496297336048033
:10228C0013768608B2CC01000100130680FA238075
:10229C009D002380CD000100010003C606001376CB
:1022AC00F60D2380C60003C60600136606022380C3
:1022BC00C600835609051166D18E2318D90483569E
:1022CC0009052166D18E2318D90423800D00E6461A
:1022DC00F3A6068001000100130680FA8346390537
:1022EC0093F606026388062483463905130C3905D8
:1022FC00A18AFDDA08186123F336048093F6860868
:10230C00B6D001000100930680FA23809D00238043
:10231C00DD000100010083460C00116693F6F60DFA
:10232C002300DC0083460C0093E606022300DC004D
:10233C0083560905D18E2318D904835609052166C5
:10234C00D18E2318D90423800D008656F3A606805F
:10235C0001000100130680FA8346390593F6060244
:10236C006385062083463905A18AEDFE97E0FF1FA1
:10237C00E780A0D12A8C97E0FF1FE78000D1E30C07
:10238C0085FF8356090511664255D18E2318D90451
:10239C0029238346390513063905A18AFDDAF3365C
:1023AC00048093F68608B6D401000100930680FAE7
:1023BC0023809D002380DD00010001008346060080
:1023CC0093F6F60D2300D60023800D00A656F3A637
:1023DC000680010001008356090503462905D247F2
:1023EC00B376DA003306CA021305800C9355F64116
:1023FC003696330DF6408257333CD6002E9C33363E
:10240C00A601330CFC40330CCC40330885039256A8
:10241C004E86B335A5033305A503C295EF80416AFB
:10242C0063468001631E0C16630C0D161306150013
:10243C003335A6002E959356F5013696B335D60056
:10244C00AA959396F50105828585D18E6346B000D9
:10245C00639D051A638B061A0356C9021582330550
:10246C00D6003336C500B2956348B000639105249D
:10247C001306F00F637DA622894663F35615930766
:10248C008008F3B7078093F78708BED601000100D8
:10249C0037170040930770052300F704930780FA61
:1024AC002300F704010001008356C70289678117D6
:1024BC00D58FC207C1832316F70223000704B65732
:1024CC00F3A7078001000100FA506A54DA544A5904
:1024DC00BA592A5A9A5A0A5BFA4B6A4CDA4C4A4D48
:1024EC00BA4D296182801308F5FF3335A800FD151C
:1024FC002E951356F5013298B336C800AA9651B1F1
:10250C00F336048093F68608B6CA010001002380D6
:10251C009D002380AD000100010083463905CD8E5E
:10252C00A309D90423800D00D646F3A6068001002A
:10253C00010035BBF336048093F68608B6CE010055
:10254C00010023809D002380CD0001000100834603
:10255C00390593E60602A309D90423800D00F6463B
:10256C00F3A606800100010095BBF336048093F6B8
:10257C008608B6D20100010023809D002380CD0087
:10258C00010001008346390593E60602A309D9042C
:10259C0023800D009656F3A60680010001006DBB4A
:1025AC009306F5FF33B5A600FD152E959355F50151
:1025BC00AE96B3B5B600AA951396F501858269B5AA
:1025CC00F336048093F68608B6D801000100930612
:1025DC0080FA23809D002380DD00010001008356DA
:1025EC00C9020566011693F6F60FD18EC206C1829A
:1025FC002316D90223800D00C656F3A606800100CF
:10260C000100850A93FAFA0F49B233E6B60045C2C7
:10261C000356C9023305D0403338A000B305B0408F
:10262C00B385054115826345B000D1E16371A608FD
:10263C00894663F0560593078008F3B7078093F734
:10264C008708BEDA01000100B717004013077005B8
:10265C002380E704130780FA2380E70401000100BC
:10266C0003D7C7027D8B2396E70223800704D65736
:10267C0081BDF336048093F68608B6DC01000100B8
:10268C00930680FA23809D002380DD000100010069
:10269C008356C9020566011693F6F60FD18EC20653
:1026AC00C1822316D90223800D00E656B9B79307D1
:1026BC008008F3B7078093F78708BEDE010001009E
:1026CC0037170040930770052300F704930780FA2F
:1026DC002300F704010001000356C702939756002C
:1026EC00B297C207C1832316F70223000704F657DB
:1026FC00C1BB914763EEB70217A70100130787FC14
:10270C008A05BA959C41BA978287B717004003A7F0
:10271C00470B1345F5FF698F23AAE70A03A7070B9D
:10272C00698F23A8E70A03A7070A798D23A0A70AB4
:10273C008280B717004083A6470B1347F5FFF98E2D
:10274C0023AAD70A83A6070B558D23A8A70A83A60D
:10275C00070A758F23A0E70A8280B717004003A7EA
:10276C00470B498F23AAE70A03A7070B1345F5FF6D
:10277C0045BFB717004083A6470B1347F5FF758F6E
:10278C0023AAE70A03A7070A598D4DB7B7170040CC
:10279C0003A7470B498FEDB7914763EEB70217A715
:1027AC000100130767F38A05BA959C41BA97828793
:1027BC00B717004003A7470D1345F5FF698F23AAF0
:1027CC00E70C03A7070D698F23A8E70C03A7070CD9
:1027DC00798D23A0A70C8280B717004083A6470DE4
:1027EC001347F5FFF98E23AAD70C83A6070D558D39
:1027FC0023A8A70C83A6070C758F23A0E70C828057
:10280C00B717004003A7470D498F23AAE70C03A76E
:10281C00070D1345F5FF45BFB717004083A6470DBD
:10282C001347F5FF758F23AAE70C03A7070C598DE7
:10283C004DB7B717004003A7470D498FEDB7B71732
:10284C0000408847420541819377050491EB9377CB
:10285C00F5013755E801130505803345F5028280F3
:10286C009377050C130700046397E7009377F50142
:10287C0037459C1CCDB72165130505D0828037E701
:10288C0000E01C435443A183E206D58F1CC1FD57C5
:10289C002320F7182322F718828013178500B7E737
:1028AC0000E023A0E710618123A2A7108280B7F774
:1028BC0000E08847CC478280814737370040A146EB
:1028CC0063C4C700328582800345B740E38EA6FE01
:1028DC003385F5000345050085072304A740CDB7D4
:1028EC0097F7FF1F9387C73F9C43172700201307B9
:1028FC0027823E95636EE500174700201307C7CF6C
:10290C006368A70017F7FF1F232CA73C3E85828026
:10291C00FD57EDBF411122C406C62A840D37294745
:10292C00B307E502B2408D83B3D7870222449507E3
:10293C00B3D7E70237370040C207C1832316F740ED
:10294C0041018280716541111305052006C6D937F6
:10295C00B7370040130770F82381E7400D47A38178
:10296C00E74013070004A380E74005472387E740AF
:10297C00B24041018280B73700402147B736004052
:10298C0091E1828003C6B740E30CC7FE0505034600
:10299C00F5FFFD15C2052384C640C181D5B7238040
:1029AC00018223A20182B717004003A7070CB706C8
:1029BC00C0FFFD16758F23A0E70C03A7070DB70604
:1029CC004000558F23A8E70C03A7070C3D9B23A0C1
:1029DC00E70C03A7070D1367070123A8E70C8280F8
:1029EC0023A2A18213064006894503C5C1826F301C
:1029FC000163B717004003A5470C83A7470C598107
:102A0C0013451500C18B058999E31365250083C710
:102A1C000182638CA7002380A18201C99387418224
:102A2C0003A30700630303000283828011456FF048
:102A3C008FC2411193962500AA852D4506C697E0B5
:102A4C00FF1FE78040A5B240014541018280411142
:102A5C0026C29394250022C44AC02A843289A686B1
:102A6C00AA850146254506C697E0FF1FE780A0A270
:102A7C00A6864A86A285294597E0FF1FE780A0A17C
:102A8C00B240224492440249014541018280011125
:102A9C0022CC06CE3714004026CA4AC84EC652C4B1
:102AAC0083447405034AB40583498405034994059A
:102ABC00EFF04F958347A40593F4F40F137AFA0FB4
:102ACC0093E71700230DF40493F9F90F1379F90F19
:102ADC00B717004003C7A705058B6DFF03D5C705C6
:102AEC00A38D4705238C3705A38C2705A38B97044F
:102AFC00F2406244D2444249B249224A0561828082
:102B0C0041119397050122C406C6C1872E8463DA4E
:102B1C000700EF30A11919C1EF30210D2165218D6E
:102B2C001DA093F7150013C5150091EF93F7250021
:102B3C0099CFC1351306000A894503C5C182EF3010
:102B4C00014E13452400B2402244410182809397E8
:102B5C00250163D00702EF508116C93D37F60200FC
:102B6C00130606E0896503C5C182EF30414B096548
:102B7C007DB7939715010145E3D707FC17A5010015
:102B8C00130545BBEF80D10C13060064916503C59A
:102B9C00C182EF30C148116559B71D71494697A5DF
:102BAC0001009385A5B417B501001305E5A486CEE5
:102BBC00A2CC97E0FF1FE780C00801E917A5010030
:102BCC00130505B4EF80D10801A037F700E0795662
:102BDC0010CBFD5654CBB7E700E0056423A087105B
:102BEC009306F00214C323A087180100010017E715
:102BFC00FF1F1307674E23A4E1824157A38AE740C6
:102C0C00130600048145080897E0FF1FE780400089
:102C1C00970700209387C7A23EC8A167938707E058
:102C2C003ECCB7070105938707103ECEED47231026
:102C3C00F10285472301F102970700009387A7DF74
:102C4C00BEC2970700009387C7E0BEC48567938711
:102C5C0057D12312F10297070000938787C53ED8FE
:102C6C00B7F50700970700009387A7E23EDC814683
:102C7C00970700009387C7DB3000E10519453EDE5E
:102C8C00231A810097E0FF1FE780E0801808814736
:102C9C00994630003E960346060085070507A30BB0
:102CAC00C700E398D7FEC24791C703574101856718
:102CBC006373F70001A00808EF305105AA8501C91C
:102CCC0017A50100130505A5EF80416401A0F6408E
:102CDC00664425618280411117050000130585E2C9
:102CEC0006C622C4EF30C17E1384C1822300A40027
:102CFC0021287531034504002244B24013060032EA
:102D0C00896541016F30A131797106D613078008AE
:102D1C00F337078093F787083EC201000100B7170D
:102D2C000040930570052380B704130680FA2380B6
:102D3C00C7040100010083C6F70293F6A60FA38710
:102D4C00D702238007049246F3A6068001000100F7
:102D5C0073370780137787083AC40100010023807A
:102D6C00B7042380C7040100010003C7F7021367EF
:102D7C002700A387E70223800704A247F3A7078055
:102D8C00010001000545EFE03FEB4D318147014764
:102D9C008146054685451305407EEFE0DFEE680071
:102DAC005146814597E0FF1FE78080E6B707C0A832
:102DBC003EC8B787E803938707D03ECA680097D709
:102DCC00FF1F9387075E3EC6EF307119B250456105
:102DDC008280411197A501009385859917A5010063
:102DEC001305C5AB06C6EF80615217A5010013058C
:102DFC00E5ABEF80A151B240294541016F800155EF
:102E0C00411197A501009385E59717A501001305BE
:102E1C00E5A806C6EF80814F17A501001305C5A6CE
:102E2C00EF80C14EB240294541016F8021524111C2
:102E3C0097A501009385459617A50100130505A6D6
:102E4C0006C6EF80A14CB240294541016F8001506C
:102E5C00797122D426D24AD02E842A89B284814513
:102E6C007146480006D6EFE09FBD97F7FF1F93878A
:102E7C00E7BEDC4783D70700231421012313F1009D
:102E8C00EF00B0438547A305F10093070019230514
:102E9C00A1003EC62686FD57A2854800230AF100F4
:102EAC00EF001044B2502254925402594561828072
:102EBC00011122CC97A50100938585942A8417A52E
:102ECC0001001305A59D06CEEF804144A28517A5F0
:102EDC0001001305A5DFEF8061432945EF80014711
:102EEC00938781819843DC4321462C0005453AC4E5
:102EFC003EC6B93F15C52A8497A501009385459018
:102F0C0017A5010013058599EF804140A28517A5EF
:102F1C000100130525AEEF80613F2945EF80014389
:102F2C00F240624405618280411122C406C6834787
:102F3C0005002A8485CB97A501009385258917A5C3
:102F4C0001001305A595EF80613C4C4017A50100CD
:102F5C00130585A1EF80813B2244B24029454101F4
:102F6C006F80C13E58411DEF97A5010093850586E2
:102F7C0017A5010013058592EF80413917A50100B3
:102F8C00130505A0EF8081382945EF80213C2244B0
:102F9C00B240116603C54183130606E88945410119
:102FAC006F30E107A1679386D7036311D70297A50A
:102FBC0001009385A58117A501001305258EEF80CF
:102FCC00E13417A501001305A59C6DBFED0797957E
:102FDC0001009385A57F17A501001305258C6315AA
:102FEC00F702EF80A13217A501001305A59BEF8016
:102FFC00E1312945EF8081352244B24003C541833C
:10300C00894541016F304118EF8041304C4017A584
:10301C0001001305259B3DBF411106C6EF903017EB
:10302C0019E5EF20203AB24041016F20D073B24035
:10303C00410182804111979501009385657817A510
:10304C0001001305A58506C6EF80412C2945EF80AC
:10305C00E12FB2404101C9B7411122C417A50100AB
:10306C001305C5832E84979501009385A57306C619
:10307C00EF80C1292945EF80612D05C89795010086
:10308C009385457217A5010013054581EF80012832
:10309C00A28517A501001305E596EF802127224490
:1030AC00B240294541016F80612AB240224441015E
:1030BC008280011122CC2EC62A849795010093851B
:1030CC00256F179501001305657D06CEEF80012451
:1030DC003246A28517A5010013058593EF800123C5
:1030EC002945EF80A12683C7418481EF97F7FF1F05
:1030FC009387C796DC4703D70700C167FD17631D8D
:10310C00F7006244F240116603C54183130606E8DA
:10311C00894505616F20B170F2406244056182807F
:10312C00411122C406C626C293F715002E8495CFF2
:10313C00938401849C40634BF00019469385410BAA
:10314C00054539339C40850723A0F1840D66130691
:10315C000620854503C54183EF20716C134514008F
:10316C00B240224492444101828093F725008DCBDA
:10317C00979501009385856A1795010013050572D3
:10318C00EF80C118179501001305055BEF8001183E
:10319C002945EF80A11BEF20300113452400C9B74E
:1031AC0093F745000145CDDF854503D5E183EFE07D
:1031BC00503E9795010093856566179501001305A0
:1031CC00E56DEF80A1141795010013052558EF80CC
:1031DC00E1132945EF8081171345440051B781470E
:1031EC0063C6B7002E96230006008280B306F50056
:1031FC0083C606003307F60085072300D700CDB73A
:10320C00411122C406C6834705002A849DC39795A5
:10321C0001009385E55C1795010013052568EF8087
:10322C00E10E4C40179501001305C57FEF80010E90
:10323C0079A85841B707CF009387777D631BF71A9E
:10324C000845B545EFF02FF30356C4000C44138525
:10325C00410997E0FF1FE780C09783C74109130717
:10326C00200A6381E7041307300A6387E714130706
:10327C0000036394E71E13850112EF80211E2A863A
:10328C00814513850112EFE08FFB138541091386ED
:10329C000112D145A9372244B240138501124101D4
:1032AC006F00D0640357C4008D4797950100938538
:1032BC002553179501001305655E6300F702EF8037
:1032CC00E1041795010013056577EF802104224472
:1032DC00B240294541016F806107EF8021031795AA
:1032EC00010013052577EF8061022945EF80010667
:1032FC000355E400930720F8054693854109238A7A
:10330C00F108B9369377F50F2A8495C79795010084
:10331C009385054D1795010013054558EF70117FE6
:10332C009375F40F1795010013058576EF70117ED8
:10333C002945EF80A101979501009385654A179562
:10334C0001001305A555EF70717C1795010013054D
:10335C006575EF70B17B2945EF70517F416593071F
:10336C0030FA0546938541097D15238AF108CD3441
:10337C009377F50F2A8495C7979501009385454659
:10338C001795010013058551EF7051789375F40F63
:10339C00179501001305C56FEF7051772945EF7034
:1033AC00F17A0566130606C889452244B24003C566
:1033BC00418341016F20B1460357C4008547630127
:1033CC00F702979501009385A54117950100130508
:1033DC00E54CEF70B173179501001305E56FF5B56A
:1033EC008357E4000566130606C8239FF1829145B6
:1033FC006DBFB707CC009387777D631AF70297955B
:10340C0001009385E53D1795010013052549EF70E3
:10341C00F16F1C448356E4008355C40003C60700B7
:10342C00179501001305056DEF70516E4DB5B7077B
:10343C00CE009387777D6302F70297950100938501
:10344C00253A1795010013056545EF70316C4C401A
:10345C001795010013050557D1BBB2402244410119
:10346C00828001113546979501009385654517A516
:10347C0001001305259706CE22CC97D0FF1FE780BD
:10348C00407C01E91795010013058527EF70517CED
:10349C0001A097F7FF1F9387E78D3EC4B7F5070090
:1034AC00856793870780814613868183E1051945DB
:1034BC003EC697D0FF1FE78000FE19469385818397
:1034CC001385410B97D0FF1FE780A0703400138643
:1034DC008183979501009385656517950100130508
:1034EC006566EF2060182A840DC9979501009385B5
:1034FC00E531179501001305653AEF703161A2852E
:10350C00179501001305C53CEF7051602945EF700C
:10351C00F163F240624405618280EF80402417958C
:10352C0001001305E530EF104039EF50001BEFE0C0
:10353C00102F17E5FF1F13052550EFE0F01B179513
:10354C0001001305E52FEFE0502F2A84EF10101324
:10355C00EFA06054EF00514DEF207028EF10B06DCC
:10356C00EFC05031979501009385452A17950100BE
:10357C001305C53209C8EF707159A2851795010062
:10358C001305453751B7EF707158179501001305A6
:10359C00A538EF70B1572945EF70515BEFC0F013B0
:1035AC0085472382F184EF90803E29C597950100D1
:1035BC009385C525179501001305452EEF70115500
:1035CC00179501001305C536EF7051542945EF705E
:1035DC00F157979501009385652317950100130505
:1035EC00E52BEF70B152179501001305A536EF705E
:1035FC00F15129BFEFF05FA2E9BF4111170500009F
:10360C00130545B206C622C4EF20916C1384418386
:10361C002300A40017E5FF1F13054544EF00D0035A
:10362C008935EFF0CFB7170500001305A588EFF02B
:10363C002FBB034504002244B2400D66130606203E
:10364C00854541016F20B11D01113546979501004B
:10365C0093850527179501001305C57806CE97D0DD
:10366C00FF1FE780005E01E9179501001305854AED
:10367C00EF70115E01A0EF60C10B2AC6EF00D17C88
:10368C00EF00115CEF706048F240324505618280BA
:10369C0041111305800406C697D0FF1FE78060A078
:1036AC00371700408327870A8D451305002093E7C1
:1036BC0007202324F70AEFF0CF8391451305000868
:1036CC00EFF08F8D914513050004EFF0EF8C9145D1
:1036DC004145EFF06F8CEFF0EFA617A50100130535
:1036EC00A5F1EF70F156179501001305A56FEF705A
:1036FC003156EFF08FCAEFF00FDEB937FD3D97D0A2
:10370C00FF1FE780E0CC014582804111B2862E86F6
:10371C00AA852D4506C697D0FF1FE780C0D7B240BB
:10372C00014541018280AE860146AA85254517D305
:10373C00FF1F670043D69307000463E6C7021D71A1
:10374C00A2CC2A84080886CE32C6EF70D130B2469D
:10375C001008A285294597D0FF1FE780C0D3F640FB
:10376C006644256182803955828093878184184212
:10377C009C4383D645000345070083C5C700035609
:10378C0046006396A50083D5E700638DD502011131
:10379C0006CE2386A7002397D700B705CF00DC4BB6
:1037AC009385757D05077D162EC2230001003AC452
:1037BC002316C1002317D10099C30A858297F240C2
:1037CC000561828082806D713C083EC6B707E500BA
:1037DC00232291103EC8AA843C083285232611105E
:1037EC003ECA23248110232021112E89EF20D01EC4
:1037FC002A84979501009385253A179501001305A6
:10380C00E509EF70B130A285179501001305C54885
:10381C00EF70D12F2945EF707133B705CB0093852D
:10382C00757D6800EF100003A2856800EF20701012
:10383C00014781467000CA852685EF10E02115C529
:10384C002A8497950100938525351795010013055A
:10385C00E504EF70B12BA285179501001305854483
:10386C00EF70D12A2945EF70712E8320C1100324EB
:10387C0081108324411003290110516182809387A8
:10388C00818418429C43797122D406D603480700E0
:10389C0083C807012A8483D64500035546006396E6
:1038AC00080183D82701638DD802238807010507F7
:1038BC002399D7003708CC00DC4B1308787D3ACC21
:1038CC001307F5FF42CA23080100231EE100231F42
:1038DC00D10099C7080832C62EC482973246A24539
:1038EC002285D535B2502254456182806D713C08D9
:1038FC003EC0B707E5003EC23C083EC4232611106B
:10390C002324811023229110231701002318010076
:10391C0023190100231A0100231B010097E7FF1F45
:10392C0083D7C71799E3C167FD172316F10097E7F3
:10393C00FF1F83D7C71681EB938781849C439C43DD
:10394C00DC4783D7070017E4FF1F13042415584CDA
:10395C002317F10083574400484B2318F10005ED61
:10396C00979501009385452A17950100130505F3DA
:10397C00EF70D119179501001305452AEF70111935
:10398C002945EF70B11C8320C110032481108324BE
:10399C0041105161828097E7FF1F83C7971099E709
:1039AC00EF20A1245C4C23AA0700F1BFFD1797E67A
:1039BC00FF1FA388F60E03560701834704014C47EB
:1039CC000A85230BF100EF20E074938781849C43DC
:1039DC000147814688430A866C00EF10E007AA84F1
:1039EC0005C99795010093852522179501001305AC
:1039FC00E5EAEF70B111A685179501001305C522F4
:103A0C00EF70D1102945EF7071145C4CC84B49BF55
:103A1C0097E7FF1F83C7F708EDDB1044854503C507
:103A2C00C184EF20C15F85B7DC4DDC4B99C7904555
:103A3C0003C5C18491456F20815E82805C4EDC4B56
:103A4C00A1C7B9C1411122C417950100130505E5A1
:103A5C002E84979501009385651906C6EF70110B9E
:103A6C00A285179501001305651EEF70310A2945D3
:103A7C00EF70D10D2244B24003C5C1841306400639
:103A8C00914541016F20A1598280411122C417E454
:103A9C00FF1F1304A4FE1C4C06C689C7DC4399C344
:103AAC004C4882975C4CC84BEF2021145C4CB240C4
:103ABC00224423AA0700410182801387E1808347B7
:103ACC0007009306F00B850793F7F70F63E7F600F3
:103ADC002387F180034507008280930700F8CDBF50
:103AEC0083574500638D070C01114AC817E9FF1F66
:103AFC001309C9FA52C4032AC90106CE22CC0327E2
:103B0C004A0126CA4EC6F15729EB1307D00DFD57B3
:103B1C006365C7042A841305860042054181B2847B
:103B2C00AE89EF20A111232AAA000325C9015C4903
:103B3C0095EF97950100938565091795010013057D
:103B4C00E5D5EF70A17C1795010013056518EF7092
:103B5C00E17B2945EF70817FDD57F2406244D2440E
:103B6C004249B249224A3E850561828093874400CE
:103B7C00B705CF002319F5009385757D3105EF004E
:103B8C00704D0325C901834564003105EF20605A4F
:103B9C000325C9012686CE853105EF20A057714635
:103BAC00A2854A85EF70216B504401CA854503C537
:103BBC00C184EF20C14681474DB70D3BEDBFFD578A
:103BCC003E858280411122C417E4FF1F130404EDCB
:103BDC005C4C06C6C84BEF2041015C4C2244B24001
:103BEC0023AA070003C5C184854541016F20C15933
:103BFC00411126C2938481849C4006C622C4BDCF49
:103C0C00DC43ADCF5CC12300B5002A84979501003D
:103C1C00938505F717950100130545C8EF70016FE3
:103C2C002945EF70A1729C4023A4070023A2070032
:103C3C0097E7FF1F938787E4DC4FDC4B99C329552B
:103C4C00A93597E7FF1F938767E5DC4FDC4B91C3E2
:103C5C00953F894503C5C184EF200153914503C5A8
:103C6C00C184EF2061529C4003A347016308030009
:103C7C0022852244B240924441010283B240224444
:103C8C009244410182800111328506CE22CC26CA93
:103C9C002E84EF206054AA8497950100938585F1BA
:103CAC0017950100130585BFEF704166030784006B
:103CBC000356640083554400A6861795010013052E
:103CCC00E5FAEF70A1642945EF70416897E7FF1F93
:103CDC0083C727DB639797000145453B81450A85E0
:103CEC00013FF2406244D244056182806D7123240D
:103CFC008110232611102322911093F745002E8456
:103D0C00638007123C083EC0B707E5003EC23C0882
:103D1C003EC4231701002318010023190100231AA4
:103D2C000100231B010097E7FF1F83D727D599E3D9
:103D3C00C167FD172316F10097E7FF1F83D727D420
:103D4C0081EB938781849C439C43DC4783D707009A
:103D5C0017E7FF1F130787D22317F100544F835720
:103D6C0047002318F100DC4A95EF979501009385E5
:103D7C00A5E817950100130565B2EF702159179549
:103D8C0001001305A5E9EF7061582945EF70015C3E
:103D9C00134544008320C110032481108324411057
:103DAC005161828097E7FF1F83C7B7CD2555BDC7EB
:103DBC00FD1717E6FF1FA306F6CC03D606018347B3
:103DCC000701CC460A85230BF100EF20A034938722
:103DDC0081849C4317E7FF1F130747CA97A601006E
:103DEC009386869C88430A866C00EF00F046AA8472
:103DFC0045D197950100938525E017950100130592
:103E0C00E5A9EF70A150A685179501001305C5E132
:103E1C00EF70C14F2945EF7061532685BD318DBFC1
:103E2C0093F725008DC341468145280897D0FF1F85
:103E3C00E78000DE2555913928089305F00F4D3B9E
:103E4C001345240081BF93F715000145A1D7EFF06E
:103E5C00FFA9134514003DBF5C4D411106C688C334
:103E6C00170500001305C5E823A4F184EF20416673
:103E7C00B2402386A184014541018280B7170040DE
:103E8C0003A7870C1367070823A4E70C01000100A4
:103E9C0003A7C70C1367070823A6E70C8280B71784
:103EAC00004003A7870C1367070423A4E70C010049
:103EBC00010003A7C70C1367070423A6E70C828035
:103ECC00B717004003A7870C1367070123A4E70C5F
:103EDC000100010003A7C70C1367070123A6E70C19
:103EEC008280B717004003A7870C1367070823A429
:103EFC00E70C0100010001000100010001000100BC
:103F0C00010003A7C70C1367070823A6E70C8280E0
:103F1C00B717004003A7870C1367070423A4E70C0B
:103F2C00010001000100010001000100010001007D
:103F3C0003A7C70C1367070423A6E70C8280B717E7
:103F4C00004003A7870C1367070123A4E70C0100AB
:103F5C00010001000100010001000100010003A7A4
:103F6C00C70C1367070123A6E70C828001114AC80E
:103F7C004EC652C406CE22CC26CA2A8A01498D4985
:103F8C00B3072A0183C40700214493978401E18776
:103F9C0063D50702B9377D1486041374F40F93F4B8
:103FAC00F40F65F40509E31D39FDF2406244D24477
:103FBC004249B249224A05618280C935E9BF0111E3
:103FCC004AC84EC652C406CE22CC26CA2A8A0149F9
:103FDC008D49B3072A0183C40700214493978401B8
:103FEC00E18763D507022D377D1486041374F40F13
:103FFC0093F4F40F65F40509E31D39FDF2406244B6
:10400C00D2444249B249224A05618280493DE9BF06
:10401C0001114AC84EC652C406CE22CC26CA2A8AE0
:10402C0001498D49B3072A0183C4070021449397A2
:10403C008401E18763D5070219377D148604137454
:10404C00F40F93F4F40F65F40509E31D39FDF24008
:10405C006244D2444249B249224A056182808D357C
:10406C00E9BF411106C622C42A840937130534005E
:10407C00F53D13056400DD3D371700408327C70C61
:10408C00B240224493E707082326F70C41018280B3
:10409C00411106C622C42A841D3713053400053786
:1040AC0013056400293F371700408327C70CB24023
:1040BC00224493E707042326F70C41018280411127
:1040CC0006C622C42A84A937130534009137130578
:1040DC0064003D3F371700408327C70CB240224491
:1040EC0093E707012326F70C41018280797122D4D2
:1040FC0026D24AD04ECE56CA5AC85EC662C4AA84CC
:10410C0006D652CCEF708135B547B34AF50217F499
:10411C00FF1F1304A4581389C185938B0185294B68
:10412C0093894186138C8185B38AFA02A69A63948B
:10413C009A02B250225423AE018423A2018623A0FA
:10414C00018692540259F249624AD24A424BB24B0E
:10415C00224C456182801146A6852285EF70E133A1
:10416C000D469385440013055400A3020400EF7020
:10417C00C1320D46938574001305A400A3040400FA
:10418C00EF70A1310D469385A4001305F4002307AD
:10419C000400EF7081308327090083A60B00A3096C
:1041AC0004000146B68585063307D4000307470093
:1041BC006318072809C623AEF18423A8B18483A70A
:1041CC00090083260C000146B68585063307D4000A
:1041DC0003079700631D072609C623A2F18623ACAB
:1041EC00B184138A01861387418583270A001443FF
:1041FC000146B68585063307D4000307E700631F25
:10420C00072409C623A0F18623AAB184979501003F
:10421C00938585B52285EFD01F8D05E9832709008D
:10422C0017F5FF1F1305454517F7FF1F2306F74426
:10423C0083A7090017F7FF1FA300F74483270A0081
:10424C0017F7FF1F230BF742293D97950100938524
:10425C0025B22285EFD03F8905E98327090017F5A0
:10426C00FF1F1305654117F7FF1FA308F74083A72E
:10427C00090017F7FF1F2303F74083270A0017F7DE
:10428C00FF1FA30DF73EF13B979501009385C5AE3B
:10429C002285EFD05F8505E98327090017F5FF1FFD
:1042AC001305853D17F7FF1F230BF73C83A7090068
:1042BC0017F7FF1FA305F73C83270A0017F7FF1F0B
:1042CC002300F73C793B97950100938565AB2285DC
:1042DC00EFD07F8105E98327090017F5FF1F130530
:1042EC00653A17F7FF1F230FF73883A7090017F755
:1042FC00FF1FA309F73883270A0017F7FF1F2304B2
:10430C00F738793397950100938505A82285EFD06E
:10431C008FFD05E98327090017F5FF1F1305853667
:10432C0017F7FF1FA301F73683A7090017F7FF1F25
:10433C00230CF73483270A0017F7FF1FA306F73463
:10434C00813B979501009385A5A42285EFD0AFF909
:10435C0005E98327090017F5FF1F1305A53217F789
:10436C00FF1F2304F73283A7090017F7FF1FA30EC3
:10437C00F73083270A0017F7FF1F2309F730093B93
:10438C0097950100938545A12285EFD0CFF505E9DE
:10439C008327090017F5FF1F1305852F17F7FF1F3C
:1043AC002308F72E83A7090017F7FF1FA302F72E88
:1043BC0083270A0017F7FF1F230DF72C0933979556
:1043CC0001009385E59D2285EFD0EFF105E9832768
:1043DC00090017F5FF1F1305A52B17F7FF1FA30ADD
:1043EC00F72A83A7090017F7FF1F2305F72A83274E
:1043FC000A0017F7FF1FA30FF728D131979501007B
:10440C009385859A2285EFD00FEE05E98327090065
:10441C0017F5FF1F1305C52717F7FF1F230DF726E9
:10442C0083A7090017F7FF1FA307F72683270A00A6
:10443C0017F7FF1F2302F72659315104B504C5B9EC
:10444C00B3876703130707FD0546BA97A1BBB3876C
:10445C006703130707FD0546BA97BDB3B387670318
:10446C00130707FD0546BA9769B3EFD2AFD82A8474
:10447C0008452E89B28909C900C1970500009385AA
:10448C00C5736105EFF0306D81447D5AEF10E00388
:10449C0063C3A4048144EF10400463C6A40497F7DB
:1044AC00FF1F938727229C43DC47B307F940918772
:1044BC002302F400638109048327C900B307F44085
:1044CC009587A302F4001C4C89C79C4799C322858D
:1044DC0082976FD06FD55C44139714008504BA97FC
:1044EC002390470165B71C48139714008504BA97AD
:1044FC00239007004DB7832789000547B307F44085
:10450C009587A302F40083570400638EE7028DC3E2
:10451C0009476384E7040D47E397E7FA979701008F
:10452C00938707DB1CCC97970100938767DB11A857
:10453C0097970100938747A11CCC9797010093870D
:10454C00A7A15CC849B7979701009387E78C1CCC4F
:10455C00979701009387478DEDB797970100938745
:10456C00E7DB1CCC97970100938747DCD9BF85E12B
:10457C00EFD2EFC9004618448347940075839D8B96
:10458C006315F700EF00B01948C46FD08FCA828052
:10459C00EFD24FC613893500C16442094111AA8973
:1045AC000144F11413590901054A2EC6EF00F071AC
:1045BC00B2456346A400014541016FD0EFC683A705
:1045CC00090013171400BA9783D707006388B70044
:1045DC006394970063742A010504C1BF0545E9BFC4
:1045EC00EFD26FC0AA892E89328BB6843A8ABE8AE2
:1045FC00EF80E0394DC12685EF10B02D8D4763E576
:10460C00A7007D556FD0AFC183DB4400EF00F07184
:10461C002A84EF00D072930774003144330585026D
:10462C0063C5A702EF007070EF0030702A84EF00B2
:10463C0010719307740031443305850263CDA702D2
:10464C00EF00B06E9307450019A8EF00506F3305CB
:10465C0085021307F0179307C017E357A7FC2D55D6
:10466C00E3C277FB63000B02D6865286A6854A8589
:10467C00EFE0105041BFEF00906C330585029307BB
:10468C00C5FFF1BF832749001385C90083D52700D7
:10469C00013779F9BDB76955B5B797F7FF1F239562
:1046AC00A70297F7FF1F9387E701904381470C46BA
:1046BC003307F500420741836393B7008280544669
:1046CC00139847008507C2962390E600D5B797F755
:1046DC00FF1F938727FF9C4303C58700828017F534
:1046EC00FF1F035565FE8280EFD26FB2C16713873F
:1046FC00D7FF6307E5026368A700F117630EF500A7
:10470C0001456FD00FB31387E7FF630EE500FD176C
:10471C001D8D13351500F5B7EF40A0347D15D5BFB1
:10472C00EF402012E5BFEF408010CDBFEFD22FAE8F
:10473C004111AA8401442EC6EF00305AB24563469B
:10474C00A400014541016FD0CFAE9C481315140055
:10475C003E9583570500E387B7FE0504E9BF034880
:10476C005500814693F7F60F63E5070181473E85B7
:10477C008280584593975600BA9703D72700631643
:10478C00B70003D70700E304C7FE8506E1BF8346E5
:10479C00450001479377F70F63E4D700814711A8D1
:1047AC001C45131657000507B29703D60700E313F1
:1047BC00B6FE3E858280EFD2EFA393170501C18729
:1047CC0097FAFF1F938A0AF06353F00883A70A0035
:1047DC00C0479C4703570400198D4205418163660D
:1047EC00F500014422856FD02FA412052A94DDBF59
:1047FC00DC4713944900014A3E94834744006341CB
:10480C00FA02014A834754006346FA028509C20939
:10481C0093D9090183A70A009847E3EBE9FCD1B7C8
:10482C001C4413195A00A6853E994A85013709ED97
:10483C00050AE1B75C4413195A00A6853E994A85CE
:10484C00F53519E1050A7DBFE30209FC61BFAA84B5
:10485C008149C9B7EFD2AF9B1C452A8481E79307E6
:10486C00C5001CC51C44231204001CC09307F00F88
:10487C0063E9B70093F5F50F2285EF10900B6FD01D
:10488C004F9B93940501C167C18063F7F500A68522
:10489C002285EF10B00DE5B7C18193F5F50F228598
:1048AC00EF103009A6852285EF10F009C9BF97F7E4
:1048BC00FF1F938727E1884382801C4599C797F790
:1048CC00FF1F23A1A7E0014582807D55828097F7C9
:1048DC00FF1F938727DF984383474500484792077C
:1048EC003E958280EFD2AF92617100451C183EC696
:1048FC00B70780013EC81C183ECA8357440002CE3D
:10490C0002D002CC231EF100834784002A8902D2F4
:10491C002301F1023C083ED402D6553F83570500D3
:10492C002316F102EF3070632307A1025C4003559C
:10493C006400F18313F717008347F102520551818C
:10494C00F99BD98FA307F102EFE0F01339C5AA84C4
:10495C0003550500EF80800483D704002AD2680039
:10496C00231CF10083D72400231DF1001C4803D61F
:10497C0047008C43EF10007A8347B400CA86178631
:10498C0001001306E6428117A305F4006C004810E1
:10499C00EFE0101E5D616FD0CF892155E5BF1C453E
:1049AC00B1CF03C5A700894613576500630BD70227
:1049BC008D46630ED70285466300D7021307400667
:1049CC003305E50203C7B700418B15CB83C7B7008E
:1049DC00BD8B3355F54082801375F5031307803E6C
:1049EC00C5B709671375F50313070771D1BF3727CF
:1049FC0009001375F5031307077CD9B701458280AD
:104A0C00EFD2EF8003A98500630409048347B90042
:104A1C00AE8493F7070E91CF0345990093052003BD
:104A2C000D810505B305B50288446105EFF0901EB4
:104A3C0005A02E85AD372A8401CDD5218325C9004B
:104A4C00B307B54063F887002E94B305A440E9FD85
:104A5C006FC03FFE8545C9BFEFC27FFB2A8403D5DB
:104A6C000500011132C636C43AC22EC002CA02CCAD
:104A7C0002CEEF70B07282452ACA22852ECC813DBF
:104A8C0003570500231EE100EF30304DA24632469D
:104A9C009247230FA10036874C08B2862285014627
:104AAC00EFF01FB405616FC0DFF8EFC25FF6617104
:104ABC001C183EC6B70780013EC81C183ECA3C08ED
:104ACC0000453ED4AA8402CC02CE02D002D202D639
:104ADC00FD3B8357050035592316F102EF30F047A3
:104AEC002307A10209C48357440091E721594A8541
:104AFC005D616FC01FF40355640052055181EFE0F6
:104B0C0080782A8965D58347B40093F7070E89C747
:104B1C0013058401EFF0901183574400231EF1001C
:104B2C00834784002301F1025C4003550900D983BB
:104B3C0013F7070883471102231CA10093F7F7070B
:104B4C00D98FA300F10283572900231DF1005C408B
:104B5C00F18313F717008347F102F99BD98FA30751
:104B6C00F102EF70B0632AD251D1834794006800F0
:104B7C00139757008347B400FD8BD98FA305F4001E
:104B8C001C4803D647008C43EF10C058A6871787E4
:104B9C0001001307E721740005464C102685EFF041
:104BAC003FA42A8929D58347B400A685FD8BA3058C
:104BBC00F400B9352DBFEFC29FE5832485FE2A840E
:104BCC0041112685EFF0BFDD834734FF93F7070EC5
:104BDC009DC32AC62685EFF0FFD019C9834734FF41
:104BEC00B245FD8BA309F4FE81C52285EFF090023E
:104BFC0041016FC01FE46DDD8327C4FF26858297BA
:104C0C0065F9834734FF93F7070E81C72285EFF0D0
:104C1C00F001032584FE513DE1BFEFC25FDC9C41F6
:104C2C0041112A8903C7070089472E8493566700D0
:104C3C00638CF6020D466382C6049307F007630289
:104C4C00F7022E85EF104059AA848149C16B130CD1
:104C5C00490097F7FF1F9387E7A69C43984763EC9F
:104C6C00E90241016FC07FDB03D745008547E3FABA
:104C7C00E7FE2E85EF10205AC1BF03D74500E3F2A3
:104C8C00E7FE2E85EF104055AA842285EF102056A2
:104C9C00C204C98C5DBFDC470355A900139A4900B7
:104CAC003E9A93170501C187635DF00083570A0094
:104CBC006395A70263E574038327CA00034D5A006A
:104CCC001DA0A1672167A98F1307F7EFE374F7FE07
:104CDC0063950900EFF05FA171FD85099DBF8327E6
:104CEC008A00034D4A00835DA90003576900216ABD
:104CFC00138BC7003AC6814A33CA4D01631E5D014E
:104D0C0097F7FF1F9387879C9C43E1DBA286628603
:104D1C00814526858297D1B7A1679387F7EF930CCE
:104D2C004BFF63F04703B2455A85EFF07F8619CDF0
:104D3C0003278B00104719CA10436380C402310744
:104D4C00D5BFEE856685EFF07F9E71FD93861A00C8
:104D5C0093FAF60F130B0B0255B7835644005C43C2
:104D6C00E3EDF6F622853AC6EF100036A16793877D
:104D7C00D7042A8A035D4400324763E897008347CF
:104D8C00D90093E707F8A306F9001C47668522862D
:104D9C00E2858297C1670844FD17337AFA00529571
:104DAC0008C02312A40115BF97F7FF1F93878791A3
:104DBC009843814715C31447814763FFD5009397E8
:104DCC0045004C47BE9519C903C75500814763750B
:104DDC00E600DC451606B2973E85828003C7450087
:104DEC008147E37BE6FE16069C45F5B7EFC29FC0F4
:104DFC00AA892E8A814497FAFF1F938AAA8C83A7CB
:104E0C000A00984763E4E4006FC01FC2DC471394A8
:104E1C00440001493E9413BB140083474400634B88
:104E2C00F900014913BB140083475400634FF90088
:104E3C008504F1B70844931759005287DA86014666
:104E4C00A2853E9582990509C9BF4844931759001C
:104E5C005287DA860546A2853E9582990509E9B7FF
:104E6C00EFC2FFBA814517F5FFFF1305456097F7B1
:104E7C00FF1F239B07849D3F6FC0BFBB97F7FF1F8E
:104E8C00938747849C4399CBEFC27FB8814517F534
:104E9C00FFFF1305C55D993F6FC0BFB98280EFC29C
:104EAC007FB541112315E1002E89B284B6893A866B
:104EBC0081460147ED452A84EF1011492AC61DCDC4
:104ECC000356A100CE85EF600139CA852285EF100B
:104EDC00115C058915C1228501462C002314910013
:104EEC00EF10F1712A8409C5ED452800EF103154FB
:104EFC00228541016FC05FB34944FDB76554CDBFF6
:104F0C005C41FD175CC18280EFC27FB0EF10810461
:104F1C0095473305F50281450D816FC09FB1EFC2F6
:104F2C001FAFEF10210395473305F5020D816FC0BC
:104F3C005FB0EFC2DFAD03550500EF10311D6FC040
:104F4C005FAFEFC2DFAC035505003287AE8617D6D4
:104F5C00FF1F035686BB97E5FF1F93856577813747
:104F6C006FC03FADEFC2BFAAEF5031006FC07FAC36
:104F7C00EFC2FFA997E5FF1F93858575EF10116FA1
:104F8C0001456FC01FABEFC29FA8814517D5FF1F0E
:104F9C000355A5B3EF10D1596FC0BFA9EFC23FA7FE
:104FAC0097E5FF1F9385C573EF10516C01456FC0DA
:104FBC005FA8EFC2DFA5814517D5FF1F0355E5B6E6
:104FCC00EF1011576FC0FFA6EFC27FA42E85EF60C4
:104FDC00204CEF6070016FC0DFA5EFC25FA3EF60E4
:104FEC00500B6FC01FA55C49E1175CC95CC58357AA
:104FFC002501A1072319F50083570501A1072318E3
:10500C00F5008280F1473305F50297E7FF1F938780
:10501C00276F9C433E9582808D476317F60603D716
:10502C004600854763F2E706EFC27F9E36853684DD
:10503C002E89EF10601A39C183574400931405016F
:10504C00C18063ED97022285EF100019FD14231225
:10505C0094009307A002630EF5009307B00263015E
:10506C00F50293079002631BF5002285EFC0F070E8
:10507C0031A00146CA852285EF8000026FC07F9B5C
:10508C002285EF005056DDBF828097E6FF1F938686
:10509C0066679C42014599CF9843D44217E6FF1F9F
:1050AC002322E6666396D70097E6FF1F23AEE664DD
:1050BC001385C7FE8280EFC29F95C12671443305CC
:1050CC0085029145EF70605501E565556FC07F967F
:1050DC0097E7FF1F23A4A7624D2633058502914550
:1050EC00EF70A0537DD197E7FF1F23ABA76071260C
:1050FC0097E7FF1F239EA75E492697E7FF1F239A7A
:10510C00A75E978701009387E7CF17E7FF1F23253B
:10511C00F75E97070000938747ED17E7FF1F232BD8
:10512C00F75C014565B7EFC29F8EAA8517E5FF1F97
:10513C001305055CEF10201E6FC0BF8FEFC23F8DB3
:10514C00DD37EF10C01E97E7FF1F9387A75B9C43CB
:10515C0081CF1387C7FE09CB83D5C7FF17E5FF1F88
:10516C001305C55AEFF0002B6FC0BF8CEFC23F8AFE
:10517C00EFF0BFF111C9834785002A8493F7070428
:10518C0091E70355E5005D3F6FC0BF8A8347C500BB
:10519C009304450117E9FF1F1309C95685E38327BB
:1051AC0009005CC997E7FF1F23AE9754832749007A
:1051BC00E1FF97E7FF1F23A99754F9B7FD172306C3
:1051CC00F5006105EF6060728307840063C9070412
:1051DC008347840093E707F82304F400EF00715031
:1051EC004205A94741813375F5028347840093F743
:1051FC0007FCC98F2304F4008347D4003E951C4060
:10520C002318A40089CF984319CB8347C40050407E
:10521C00814585073305F5024205418102978327B5
:10522C0009005CC897E7FF1F23AE974C8327490002
:10523C0089E797E7FF1F23A9974C8347C400A9D799
:10524C008355040117E5FF1F1305454CEFF0801C37
:10525C0025BFEFC2CFFB97E7FF1F938767709C4773
:10526C0001448583858B81EFAE84B2853A86EF103D
:10527C0060112A8409C5EF106008829408CC22853D
:10528C006FC02FFBEFC20FF741112E8932C6AA89CE
:10529C00692C324713060502CA86970500009385D0
:1052AC00A5D617E5FF1F1305A54465372A8429CD1C
:1052BC009304C50065261946AA852685EF009065DE
:1052CC0085452685EF00706217850100130545B1F1
:1052DC004E95834505002685EF00B0655C48314648
:1052EC008145A1075CC85CC483572401E1172319CD
:1052FC00F40083570401E1172318F4001C4C3E857D
:10530C00EFC0EFF3A3042501228541016FC0CFF15B
:10531C00EFC2EFEF4111AA842EC632C4EF10600029
:10532C00004DB2452246834784000CC050C093F711
:10533C00F70393E707042304F400231804002685DD
:10534C00EF00D07B83479400A9462317A40013D702
:10535C00370005073307D7029D8B85072306F4001A
:10536C00A306E40083C70401D8488507230FF7FE82
:10537C0017E7FF1F130707395843232A0400930725
:10538C0044011DEB17E7FF1F2320F73817E7FF1F1A
:10539C00232AF73617E4FF1F130444372285EFE066
:1053AC00307D1C44858B5D8D09E581452285EFF0B0
:1053BC00600641016FC0EFE71CC317E7FF1F2325F1
:1053CC00F734C9BFEFC2AFE497050000938505C55C
:1053DC000145EFF07FBF01456FC0AFE5EFC22FE392
:1053EC00EFF0BFBF6FC0EFE48347C500A1E7EFC28A
:1053FC000FE22A840355E500EFF0FFD215C983476D
:10540C00840093F7F7FB2304F4001C4091C7DC43A2
:10541C0081C74C4001458297EFF03FC717E5FF1F4E
:10542C001305C52EEFF080000355E400EFF01FD1FB
:10543C006FC02FE08280EFC28FDD97E7FF1F93874D
:10544C00672C970500009385A5D217E5FF1F130560
:10545C00E52B23A0070023A20700EFE0D06F6FC05D
:10546C004FDD1C4D91CBDC4381CBEFC24FDA834532
:10547C00070082976FC0EFDB828097E7FF1F93874F
:10548C00272B9C4303C50700828097E7FF1F938758
:10549C00272A9C4303C51700828097E7FF1F938739
:1054AC0027299C4303C52700828097E7FF1F93871A
:1054BC0027289C4303C54700828097E7FF1F9387EB
:1054CC0027279C4303C53700828097E7FF1F9387EC
:1054DC0027269C4303C55700828097E7FF1F9387BD
:1054EC0027259C4303C56700828097E7FF1F93879E
:1054FC0027249C4303C57700828097E7FF1F93877F
:10550C0027239C4303C58700828097E7FF1F93875F
:10551C0027229C4303C59700828097E7FF1F938740
:10552C0027219C4303C5A700828097E7FF1F938721
:10553C0027209C4303C5B70011E11D45828097E7E6
:10554C00FF1F9387E71E9C4303C5C700828097E724
:10555C00FF1F9387E71D9C4303C5D700828097E705
:10556C00FF1F9387E71C9C4303C5E700828097E7E6
:10557C00FF1F9387E71B9C4303D50701828097E7A6
:10558C00FF1F9387E71A9C4303C52701828097E787
:10559C00FF1F9387E7199C4303D54701828097E748
:1055AC00FF1F9387E7189C4303D56701828097E719
:1055BC00FF1F9387E7179C4303D58701828097E7EA
:1055CC00FF1F9387E7169C4303C5A701828097E7CB
:1055DC00FF1F9387E7159C4303C5B701828097E7AC
:1055EC00FF1F9387E7149C4303C5C701828097E78D
:1055FC00FF1F9387E7139C4303C5D701828097E76E
:10560C00FF1F9387E7129C438857828097E7FF1F01
:10561C00938707129C4303D5C702828097E7FF1F2D
:10562C00938707119C4303D5E70219E11305800CFE
:10563C00828097E7FF1F9387A70F9C4303C507033F
:10564C00828097E7FF1F9387A70E9C43C85B8280DD
:10565C0097E7FF1F9387470D8843828097E7FF1FCB
:10566C009387C70C8843828019E17D558280F5DED3
:10567C00984265DFFDD917E7FF1F1307672E184700
:10568C00AA877155058B6316072203C507001547BA
:10569C00E37DA7FC03C737001305F0057D171377CF
:1056AC00F70FE364E5FC03C35700E30003FC83C876
:1056BC006700E38C08FA03C777004945791713771D
:1056CC00F70FE364E5FA03C7A70011481305F7FFCA
:1056DC001375F50FE36BA8F803CE97000D4813056F
:1056EC00FEFF1375F50FE362A8F803C8B700630952
:1056FC00080065181378F80F1305600DE36705F7BC
:10570C0003C5C700794879151375F50FE36FA8F435
:10571C0003C8D7000D457D181378F80FE36705F51E
:10572C0003D80701930E401751184208135808016B
:10573C00E3ED0EF303C8E7007D181378F80FE3666A
:10574C0005F303C827017D181378F80FE36F05F1F3
:10575C0003C88700C54E75181378F80FE3E70EF1F0
:10576C0003D86701856E938EBEE06D1842081358FE
:10577C000801E3EC0EEF03D847016D1842081358EB
:10578C000801E3E40EEF03D8870179184208135897
:10579C000801E36C05ED03C8A7017D181378F80F19
:1057AC00E36505ED03C5B7011D487D151375F50FB0
:1057BC00E36DA8EA03C5D701714879151375F50F88
:1057CC00E365A8EA03D5E7011308E00F7D15420550
:1057DC004181E36CA8E803C50702494879151375A4
:1057EC00F50FE364A8E883AE470237C5340013080D
:1057FC00F5BFE36CD8E703A88702130555BF59180A
:10580C00E36505E717E5FF1F2322C5F203C6050173
:10581C0017E5FF1F232EF5F00545E378C5E403D803
:10582C002501D04933760603E31106E403C61501BE
:10583C00E30D06E217E6FF1F2328B6EE83C527000B
:10584C0001466387A50003C61700F1453306B6026F
:10585C0083C707039305C00272971A071307C7057E
:10586C0016031A9796084697B387B70241553E9789
:10587C00329742074183636EE802EFC24F99368537
:10588C00EF60D063EFD0F0142A84EF80F0102A94EC
:10589C00EFC0D0182A94EF60507B2A94EFF0BF81B0
:1058AC002A94EF2010612A94EF50A06122956FC0CA
:1058BC004F988280EFC2AF954111A307A100EF80F2
:1058CC00C0119305F100170500001305C5B9EFF0E1
:1058DC00EFD1014541016FC0CF95EFC2CF9017E4D6
:1058EC00FF1F1304E40703288400795993681800F8
:1058FC0097E4FF1F23AA140713781800631E0800EF
:10590C00BA84BE89368B328A2E89AA8AEFE03FDCB4
:10591C007D15269509E531594A856FC04F90EFE00A
:10592C001FDB7D152695A167E357F5FE97E7FF1F53
:10593C009387073A98433E8C814B11C70145EFC0C2
:10594C00F031933B15004A85DA865686D285EF7086
:10595C00B02A2A8911CD1C44F99B17E7FF1F232578
:10596C00F70083270C00CDDBE3880BFA82976DB729
:10597C00268597E7FF1F23A707FEEFE01FD24146BE
:10598C00CE8517E5FF1F13052507EF50D10CEFA0AF
:10599C00A07B0325040BEFA0A07D0545EFA0B00371
:1059AC000545EFF03FF18DBF97E7FF1F938747FB4E
:1059BC009C47858BD5C7EFC28F8517E5FF1F130555
:1059CC00E50197E7FF1F23AD07F897E7FF1F23AB10
:1059DC0007F897E7FF1F23A907F8EFE03025EF3012
:1059EC00D07FEFE0C07CEFE0500197E7FF1F93877B
:1059FC00A7F59C4381C70545EF60B02797E7FF1FCC
:105A0C00938747DE9C4389C741657D15EF5000673E
:105A1C00EFC0B02DEFA0207497E7FF1F93874709C5
:105A2C009C431397170163540700EFC0E03897E7C6
:105A3C00FF1F23A307FC97E7FF1F23A107FC97E792
:105A4C00FF1F23AF07FA97E7FF1F23AD07FAEFF00D
:105A5C00FF989D23EFF0CFC0EFC0C05A6FB07FFD11
:105A6C008280EFB23FF92A849304140201112E852F
:105A7C00B289A685214636C63A89EF50617B1DE175
:105A8C00B24638082686CE8513059404EF40804034
:105A9C0021462C084A85EF50A17913351500056174
:105AAC006FB09FF80145E5BFEFB27FF69305450651
:105ABC0017E5FF1F130505C8EFE0D0156FB07FF792
:105ACC00EFB2FFF441112EC6EFF06FC5B24588C19D
